{
  "_format": "hh-sol-artifact-1",
  "contractName": "CampaignManager",
  "sourceName": "contracts/Campaign.sol",
  "abi": [
    {
      "anonymous": false,
      "inputs": [
        {
          "indexed": true,
          "internalType": "uint256",
          "name": "id",
          "type": "uint256"
        },
        {
          "indexed": true,
          "internalType": "address",
          "name": "owner",
          "type": "address"
        }
      ],
      "name": "CampaignCreated",
      "type": "event"
    },
    {
      "anonymous": false,
      "inputs": [
        {
          "indexed": true,
          "internalType": "uint256",
          "name": "id",
          "type": "uint256"
        }
      ],
      "name": "CampaignPublished",
      "type": "event"
    },
    {
      "anonymous": false,
      "inputs": [
        {
          "indexed": true,
          "internalType": "uint256",
          "name": "id",
          "type": "uint256"
        },
        {
          "indexed": true,
          "internalType": "address",
          "name": "donor",
          "type": "address"
        },
        {
          "indexed": false,
          "internalType": "uint256",
          "name": "amount",
          "type": "uint256"
        }
      ],
      "name": "Contributed",
      "type": "event"
    },
    {
      "anonymous": false,
      "inputs": [
        {
          "indexed": true,
          "internalType": "uint256",
          "name": "id",
          "type": "uint256"
        }
      ],
      "name": "OwnerWithdrawn",
      "type": "event"
    },
    {
      "anonymous": false,
      "inputs": [
        {
          "indexed": true,
          "internalType": "uint256",
          "name": "id",
          "type": "uint256"
        },
        {
          "indexed": true,
          "internalType": "address",
          "name": "donor",
          "type": "address"
        },
        {
          "indexed": false,
          "internalType": "uint256",
          "name": "amount",
          "type": "uint256"
        }
      ],
      "name": "Refunded",
      "type": "event"
    },
    {
      "anonymous": false,
      "inputs": [
        {
          "indexed": true,
          "internalType": "uint256",
          "name": "id",
          "type": "uint256"
        },
        {
          "indexed": false,
          "internalType": "uint256",
          "name": "tierAmount",
          "type": "uint256"
        }
      ],
      "name": "TierAdded",
      "type": "event"
    },
    {
      "inputs": [
        {
          "internalType": "uint256",
          "name": "_id",
          "type": "uint256"
        },
        {
          "internalType": "uint256",
          "name": "_amount",
          "type": "uint256"
        }
      ],
      "name": "addTier",
      "outputs": [],
      "stateMutability": "nonpayable",
      "type": "function"
    },
    {
      "inputs": [],
      "name": "campaignCount",
      "outputs": [
        {
          "internalType": "uint256",
          "name": "",
          "type": "uint256"
        }
      ],
      "stateMutability": "view",
      "type": "function"
    },
    {
      "inputs": [
        {
          "internalType": "uint256",
          "name": "_id",
          "type": "uint256"
        },
        {
          "internalType": "uint256",
          "name": "_tierIndex",
          "type": "uint256"
        }
      ],
      "name": "contribute",
      "outputs": [],
      "stateMutability": "payable",
      "type": "function"
    },
    {
      "inputs": [
        {
          "internalType": "uint256",
          "name": "_goal",
          "type": "uint256"
        },
        {
          "internalType": "uint256",
          "name": "_hardCap",
          "type": "uint256"
        },
        {
          "internalType": "uint256",
          "name": "_deadline",
          "type": "uint256"
        }
      ],
      "name": "createCampaign",
      "outputs": [],
      "stateMutability": "nonpayable",
      "type": "function"
    },
    {
      "inputs": [
        {
          "internalType": "uint256",
          "name": "_id",
          "type": "uint256"
        }
      ],
      "name": "getCampaign",
      "outputs": [
        {
          "internalType": "address",
          "name": "owner",
          "type": "address"
        },
        {
          "internalType": "uint256",
          "name": "goal",
          "type": "uint256"
        },
        {
          "internalType": "uint256",
          "name": "hardCap",
          "type": "uint256"
        },
        {
          "internalType": "uint256",
          "name": "deadline",
          "type": "uint256"
        },
        {
          "internalType": "enum CampaignManager.CampaignStatus",
          "name": "status",
          "type": "uint8"
        },
        {
          "internalType": "uint256",
          "name": "totalContributed",
          "type": "uint256"
        },
        {
          "internalType": "uint256",
          "name": "tierCount",
          "type": "uint256"
        },
        {
          "internalType": "bool",
          "name": "ownerWithdrawn",
          "type": "bool"
        }
      ],
      "stateMutability": "view",
      "type": "function"
    },
    {
      "inputs": [
        {
          "internalType": "uint256",
          "name": "_id",
          "type": "uint256"
        },
        {
          "internalType": "uint256",
          "name": "_tierIndex",
          "type": "uint256"
        }
      ],
      "name": "getTier",
      "outputs": [
        {
          "internalType": "uint256",
          "name": "",
          "type": "uint256"
        }
      ],
      "stateMutability": "view",
      "type": "function"
    },
    {
      "inputs": [
        {
          "internalType": "uint256",
          "name": "_id",
          "type": "uint256"
        }
      ],
      "name": "publishCampaign",
      "outputs": [],
      "stateMutability": "nonpayable",
      "type": "function"
    },
    {
      "inputs": [
        {
          "internalType": "uint256",
          "name": "_id",
          "type": "uint256"
        }
      ],
      "name": "refund",
      "outputs": [],
      "stateMutability": "nonpayable",
      "type": "function"
    },
    {
      "inputs": [
        {
          "internalType": "uint256",
          "name": "_id",
          "type": "uint256"
        }
      ],
      "name": "withdraw",
      "outputs": [],
      "stateMutability": "nonpayable",
      "type": "function"
    }
  ],
  "bytecode": "0x6080604052348015600f57600080fd5b50611d508061001f6000396000f3fe6080604052600436106100865760003560e01c80635598f8cc116100595780635598f8cc146101435780637274e30d146101875780638c590917146101b2578063f0a603bc146101ce578063f69d3158146101f757610086565b8063278ecde11461008b5780632e1a7d4d146100b457806345350759146100dd57806351355cfb14610106575b600080fd5b34801561009757600080fd5b506100b260048036038101906100ad919061125c565b610220565b005b3480156100c057600080fd5b506100db60048036038101906100d6919061125c565b610473565b005b3480156100e957600080fd5b5061010460048036038101906100ff9190611289565b6106f6565b005b34801561011257600080fd5b5061012d60048036038101906101289190611289565b61094d565b60405161013a91906112d8565b60405180910390f35b34801561014f57600080fd5b5061016a6004803603810190610165919061125c565b6109db565b60405161017e9897969594939291906113c6565b60405180910390f35b34801561019357600080fd5b5061019c610a7f565b6040516101a991906112d8565b60405180910390f35b6101cc60048036038101906101c79190611289565b610a85565b005b3480156101da57600080fd5b506101f560048036038101906101f0919061125c565b610dcd565b005b34801561020357600080fd5b5061021e60048036038101906102199190611444565b610fbe565b005b60006001600083815260200190815260200160002090506003600481111561024b5761024a611334565b5b8160040160009054906101000a900460ff16600481111561026f5761026e611334565b5b14806102c057506001600481111561028a57610289611334565b5b8160040160009054906101000a900460ff1660048111156102ae576102ad611334565b5b1480156102bf575042816003015411155b5b6102ff576040517f08c379a00000000000000000000000000000000000000000000000000000000081526004016102f6906114f4565b60405180910390fd5b60008160070160003373ffffffffffffffffffffffffffffffffffffffff1673ffffffffffffffffffffffffffffffffffffffff16815260200190815260200160002054905060008111610388576040517f08c379a000000000000000000000000000000000000000000000000000000000815260040161037f90611560565b60405180910390fd5b60008260070160003373ffffffffffffffffffffffffffffffffffffffff1673ffffffffffffffffffffffffffffffffffffffff168152602001908152602001600020819055503373ffffffffffffffffffffffffffffffffffffffff166108fc829081150290604051600060405180830381858888f19350505050158015610415573d6000803e3d6000fd5b503373ffffffffffffffffffffffffffffffffffffffff16837f7ca5472b7ea78c2c0141c5a12ee6d170cf4ce8ed06be3d22c8252ddfc7a6a2c48360405161045d91906112d8565b60405180910390a361046e83611149565b505050565b803373ffffffffffffffffffffffffffffffffffffffff166001600083815260200190815260200160002060000160009054906101000a900473ffffffffffffffffffffffffffffffffffffffff1673ffffffffffffffffffffffffffffffffffffffff1614610518576040517f08c379a000000000000000000000000000000000000000000000000000000000815260040161050f906115cc565b60405180910390fd5b60006001600084815260200190815260200160002090506002600481111561054357610542611334565b5b8160040160009054906101000a900460ff16600481111561056757610566611334565b5b14806105a7575060048081111561058157610580611334565b5b8160040160009054906101000a900460ff1660048111156105a5576105a4611334565b5b145b6105e6576040517f08c379a00000000000000000000000000000000000000000000000000000000081526004016105dd90611638565b60405180910390fd5b8060080160009054906101000a900460ff1615610638576040517f08c379a000000000000000000000000000000000000000000000000000000000815260040161062f906116a4565b60405180910390fd5b60018160080160006101000a81548160ff0219169083151502179055508060000160009054906101000a900473ffffffffffffffffffffffffffffffffffffffff1673ffffffffffffffffffffffffffffffffffffffff166108fc82600501549081150290604051600060405180830381858888f193505050501580156106c3573d6000803e3d6000fd5b50827fe1ba612886c314bab269521f17316b07e06593a8fbe87c52802306c8c6f7786560405160405180910390a2505050565b813373ffffffffffffffffffffffffffffffffffffffff166001600083815260200190815260200160002060000160009054906101000a900473ffffffffffffffffffffffffffffffffffffffff1673ffffffffffffffffffffffffffffffffffffffff161461079b576040517f08c379a0000000000000000000000000000000000000000000000000000000008152600401610792906115cc565b60405180910390fd5b82600060048111156107b0576107af611334565b5b6001600083815260200190815260200160002060040160009054906101000a900460ff1660048111156107e6576107e5611334565b5b14610826576040517f08c379a000000000000000000000000000000000000000000000000000000000815260040161081d90611710565b60405180910390fd5b60006001600086815260200190815260200160002090506005816006018054905010610887576040517f08c379a000000000000000000000000000000000000000000000000000000000815260040161087e9061177c565b60405180910390fd5b600084116108ca576040517f08c379a00000000000000000000000000000000000000000000000000000000081526004016108c1906117e8565b60405180910390fd5b8060060160405180602001604052808681525090806001815401808255809150506001900390600052602060002001600090919091909150600082015181600001555050847fcfc4d8961c232632c6b09bddf66bc413cb73448057d761d8e9131102f8fb3f998560405161093e91906112d8565b60405180910390a25050505050565b600080600160008581526020019081526020016000209050806006018054905083106109ae576040517f08c379a00000000000000000000000000000000000000000000000000000000081526004016109a590611854565b60405180910390fd5b8060060183815481106109c4576109c3611874565b5b906000526020600020016000015491505092915050565b6000806000806000806000806000600160008b815260200190815260200160002090508060000160009054906101000a900473ffffffffffffffffffffffffffffffffffffffff168160010154826002015483600301548460040160009054906101000a900460ff16856005015486600601805490508760080160009054906101000a900460ff169850985098509850985098509850985050919395975091939597565b60005481565b600060016000848152602001908152602001600020905060006004811115610ab057610aaf611334565b5b8160040160009054906101000a900460ff166004811115610ad457610ad3611334565b5b03610b14576040517f08c379a0000000000000000000000000000000000000000000000000000000008152600401610b0b906118ef565b60405180910390fd5b600480811115610b2757610b26611334565b5b8160040160009054906101000a900460ff166004811115610b4b57610b4a611334565b5b03610b8b576040517f08c379a0000000000000000000000000000000000000000000000000000000008152600401610b829061195b565b60405180910390fd5b60036004811115610b9f57610b9e611334565b5b8160040160009054906101000a900460ff166004811115610bc357610bc2611334565b5b03610c03576040517f08c379a0000000000000000000000000000000000000000000000000000000008152600401610bfa906119c7565b60405180910390fd5b80600301544210610c49576040517f08c379a0000000000000000000000000000000000000000000000000000000008152600401610c4090611a33565b60405180910390fd5b80600601805490508210610c92576040517f08c379a0000000000000000000000000000000000000000000000000000000008152600401610c8990611a9f565b60405180910390fd5b6000816006018381548110610caa57610ca9611874565b5b90600052602060002001600001549050803414610cfc576040517f08c379a0000000000000000000000000000000000000000000000000000000008152600401610cf390611b0b565b60405180910390fd5b80826005016000828254610d109190611b5a565b92505081905550808260070160003373ffffffffffffffffffffffffffffffffffffffff1673ffffffffffffffffffffffffffffffffffffffff1681526020019081526020016000206000828254610d689190611b5a565b925050819055503373ffffffffffffffffffffffffffffffffffffffff16847fb2ed2e021651f85a4754a44651fc09ac5141bc0329ce4dfe8dd712a5d04a8b3983604051610db691906112d8565b60405180910390a3610dc784611149565b50505050565b803373ffffffffffffffffffffffffffffffffffffffff166001600083815260200190815260200160002060000160009054906101000a900473ffffffffffffffffffffffffffffffffffffffff1673ffffffffffffffffffffffffffffffffffffffff1614610e72576040517f08c379a0000000000000000000000000000000000000000000000000000000008152600401610e69906115cc565b60405180910390fd5b8160006004811115610e8757610e86611334565b5b6001600083815260200190815260200160002060040160009054906101000a900460ff166004811115610ebd57610ebc611334565b5b14610efd576040517f08c379a0000000000000000000000000000000000000000000000000000000008152600401610ef490611710565b60405180910390fd5b60006001600085815260200190815260200160002090506000816006018054905011610f5e576040517f08c379a0000000000000000000000000000000000000000000000000000000008152600401610f5590611bda565b60405180910390fd5b60018160040160006101000a81548160ff02191690836004811115610f8657610f85611334565b5b0217905550837f4d327d5a10c641d61ce526a581c8ad8ed08e5bba6f5adcb241327bd516152b9160405160405180910390a250505050565b81831115611001576040517f08c379a0000000000000000000000000000000000000000000000000000000008152600401610ff890611c46565b60405180910390fd5b428111611043576040517f08c379a000000000000000000000000000000000000000000000000000000000815260040161103a90611cb2565b60405180910390fd5b600060016000805481526020019081526020016000209050338160000160006101000a81548173ffffffffffffffffffffffffffffffffffffffff021916908373ffffffffffffffffffffffffffffffffffffffff16021790555083816001018190555082816002018190555081816003018190555060008160040160006101000a81548160ff021916908360048111156110e1576110e0611334565b5b02179055503373ffffffffffffffffffffffffffffffffffffffff166000547f633109eec20320eded000fc1e2634211aa7e92ba3f5b15faf6dcdafca05094e460405160405180910390a360008081548092919061113e90611cd2565b919050555050505050565b600060016000838152602001908152602001600020905080600201548160050154106111a15760048160040160006101000a81548160ff0219169083600481111561119757611196611334565b5b021790555061121d565b8060030154421061121c5780600101548160050154106111ed5760028160040160006101000a81548160ff021916908360048111156111e3576111e2611334565b5b021790555061121b565b60038160040160006101000a81548160ff0219169083600481111561121557611214611334565b5b02179055505b5b5b5050565b600080fd5b6000819050919050565b61123981611226565b811461124457600080fd5b50565b60008135905061125681611230565b92915050565b60006020828403121561127257611271611221565b5b600061128084828501611247565b91505092915050565b600080604083850312156112a05761129f611221565b5b60006112ae85828601611247565b92505060206112bf85828601611247565b9150509250929050565b6112d281611226565b82525050565b60006020820190506112ed60008301846112c9565b92915050565b600073ffffffffffffffffffffffffffffffffffffffff82169050919050565b600061131e826112f3565b9050919050565b61132e81611313565b82525050565b7f4e487b7100000000000000000000000000000000000000000000000000000000600052602160045260246000fd5b6005811061137457611373611334565b5b50565b600081905061138582611363565b919050565b600061139582611377565b9050919050565b6113a58161138a565b82525050565b60008115159050919050565b6113c0816113ab565b82525050565b6000610100820190506113dc600083018b611325565b6113e9602083018a6112c9565b6113f660408301896112c9565b61140360608301886112c9565b611410608083018761139c565b61141d60a08301866112c9565b61142a60c08301856112c9565b61143760e08301846113b7565b9998505050505050505050565b60008060006060848603121561145d5761145c611221565b5b600061146b86828701611247565b935050602061147c86828701611247565b925050604061148d86828701611247565b9150509250925092565b600082825260208201905092915050565b7f4e6f7420726566756e6461626c65000000000000000000000000000000000000600082015250565b60006114de600e83611497565b91506114e9826114a8565b602082019050919050565b6000602082019050818103600083015261150d816114d1565b9050919050565b7f4e6f20636f6e747269627574696f6e0000000000000000000000000000000000600082015250565b600061154a600f83611497565b915061155582611514565b602082019050919050565b600060208201905081810360008301526115798161153d565b9050919050565b7f4e6f74206f776e65720000000000000000000000000000000000000000000000600082015250565b60006115b6600983611497565b91506115c182611580565b602082019050919050565b600060208201905081810360008301526115e5816115a9565b9050919050565b7f4e6f7420616c6c6f776564000000000000000000000000000000000000000000600082015250565b6000611622600b83611497565b915061162d826115ec565b602082019050919050565b6000602082019050818103600083015261165181611615565b9050919050565b7f416c72656164792077697468647261776e000000000000000000000000000000600082015250565b600061168e601183611497565b915061169982611658565b602082019050919050565b600060208201905081810360008301526116bd81611681565b9050919050565b7f4e6f742064726166740000000000000000000000000000000000000000000000600082015250565b60006116fa600983611497565b9150611705826116c4565b602082019050919050565b60006020820190508181036000830152611729816116ed565b9050919050565b7f4d61782035207469657273000000000000000000000000000000000000000000600082015250565b6000611766600b83611497565b915061177182611730565b602082019050919050565b6000602082019050818103600083015261179581611759565b9050919050565b7f416d6f756e74206d757374206265203e20300000000000000000000000000000600082015250565b60006117d2601283611497565b91506117dd8261179c565b602082019050919050565b60006020820190508181036000830152611801816117c5565b9050919050565b7f496e76616c696420696e64657800000000000000000000000000000000000000600082015250565b600061183e600d83611497565b915061184982611808565b602082019050919050565b6000602082019050818103600083015261186d81611831565b9050919050565b7f4e487b7100000000000000000000000000000000000000000000000000000000600052603260045260246000fd5b7f4e6f74207075626c697368656420796574000000000000000000000000000000600082015250565b60006118d9601183611497565b91506118e4826118a3565b602082019050919050565b60006020820190508181036000830152611908816118cc565b9050919050565b7f416c726561647920736f6c64206f757400000000000000000000000000000000600082015250565b6000611945601083611497565b91506119508261190f565b602082019050919050565b6000602082019050818103600083015261197481611938565b9050919050565b7f486173206661696c656400000000000000000000000000000000000000000000600082015250565b60006119b1600a83611497565b91506119bc8261197b565b602082019050919050565b600060208201905081810360008301526119e0816119a4565b9050919050565b7f43616d706169676e20656e646564000000000000000000000000000000000000600082015250565b6000611a1d600e83611497565b9150611a28826119e7565b602082019050919050565b60006020820190508181036000830152611a4c81611a10565b9050919050565b7f496e76616c696420746965720000000000000000000000000000000000000000600082015250565b6000611a89600c83611497565b9150611a9482611a53565b602082019050919050565b60006020820190508181036000830152611ab881611a7c565b9050919050565b7f496e636f7272656374204554482073656e740000000000000000000000000000600082015250565b6000611af5601283611497565b9150611b0082611abf565b602082019050919050565b60006020820190508181036000830152611b2481611ae8565b9050919050565b7f4e487b7100000000000000000000000000000000000000000000000000000000600052601160045260246000fd5b6000611b6582611226565b9150611b7083611226565b9250828201905080821115611b8857611b87611b2b565b5b92915050565b7f4174206c65617374206f6e652074696572207265717569726564000000000000600082015250565b6000611bc4601a83611497565b9150611bcf82611b8e565b602082019050919050565b60006020820190508181036000830152611bf381611bb7565b9050919050565b7f476f616c20657863656564732063617000000000000000000000000000000000600082015250565b6000611c30601083611497565b9150611c3b82611bfa565b602082019050919050565b60006020820190508181036000830152611c5f81611c23565b9050919050565b7f496e76616c696420646561646c696e6500000000000000000000000000000000600082015250565b6000611c9c601083611497565b9150611ca782611c66565b602082019050919050565b60006020820190508181036000830152611ccb81611c8f565b9050919050565b6000611cdd82611226565b91507fffffffffffffffffffffffffffffffffffffffffffffffffffffffffffffffff8203611d0f57611d0e611b2b565b5b60018201905091905056fea264697066735822122000ac34b79f869bebb01e06cb6b39b79a6b13dcd048062e7a836a41b43e710afc64736f6c634300081c0033",
  "linkReferences": {},
  "deployedLinkReferences": {}
}